:020000040800F2
:100000000000032031060008810600088106000870
:100010008106000881060008810600080000000033
:100020000000000000000000000000008106000841
:10003000810600080000000081060008290500086C
:100040008106000881060008810600088106000874
:100050008106000881060008810600088106000864
:100060008106000881060008810600088106000854
:100070008106000881060008810600088106000844
:100080008106000881060008810600088106000834
:100090008106000881060008810600088106000824
:1000A0008106000881060008810600088106000814
:1000B0008106000881060008810600088106000804
:1000C00081060008810600088106000881060008F4
:1000D00081060008810600088106000881060008E4
:1000E000490500088106000881060008810600080D
:1000F00081060008810600088106000881060008C4
:1001000081060008810600088106000881060008B3
:1001100081060008810600088106000881060008A3
:100120008106000881060008810600088106000893
:100130008106000881060008810600088106000883
:100140008106000881060008810600088106000873
:100150008106000881060008810600088106000863
:100160008106000881060008810600088106000853
:1001700081060008810600088106000800000000D2
:100180008106000881060008810600088106000833
:100190008106000881060008810600088106000823
:0C01A000810600088106000881060008A6
:1001AC0010B5054C237833B9044B13B10448AFF3A5
:1001BC0000800123237010BD00000020000000000F
:1001CC00CC06000808B5034B1BB103490348AFF339
:1001DC00008008BD0000000004000020CC060008D0
:1001EC00034AD2F8883043F47003C2F88830704761
:1001FC0000ED00E008B500F06BF800F0EDF800F051
:10020C00BDF900F0EFF90AE02E4A936943F480231C
:10021C009361A2F50062936943F0010393612A4B49
:10022C001B78DBB2012BEFD0274B1B78DBB2022BF8
:10023C001DD0254B1B78DBB2032B22D0224B1B7815
:10024C00DBB2042B27D0204B1B78DBB2052B2ED036
:10025C001D4B1B78DBB2062BE1D11A4B9A6942F489
:10026C0000329A619A6942F004029A61D7E7174BFF
:10027C009A6942F480329A619A6942F080029A61DA
:10028C00CDE7124B9A6942F400029A619A6942F4E2
:10029C0080429A61C3E70D4A936943F080439361AE
:1002AC0002F50062936943F001039361B7E7054BD4
:1002BC009A6942F480329A619A6942F002029A6118
:1002CC00ADE700BF000C02402000002000040240FB
:1002DC003F4A136823F0F80343F0800313600023B4
:1002EC0093603B4B9B6813F00C0FFAD1384A1368A0
:1002FC0023F080731360364B1B6813F0007FFAD128
:10030C00334A136823F410231360314B1B6813F426
:10031C00003FFAD12E4B1A6822F480221A601A6818
:10032C0042F480321A602A4B1B6813F4003FFAD057
:10033C00274B1A6822F480221A601A6842F40022B1
:10034C001A6000225A605A6842F480025A605A6855
:10035C0022F03F0242F004025A605A686FF38E1288
:10036C0042F434525A605A6822F440325A601A6885
:10037C0042F080721A60164B1B6813F0007FFAD1A2
:10038C00134B9A6822F0030242F002029A609A68B8
:10039C0022F0F0029A609A6822F4E05242F4A052E1
:1003AC009A609A6822F4604242F400429A609A6819
:1003BC0042F060529A609A6822F040429A60054A74
:1003CC00136823F00F0343F005031360704700BF5D
:1003DC0000380240003C02403C4A136B43F00203DD
:1003EC0013633B4B196841F001011960596821F006
:1003FC0001015960996841F001019960D96821F0B7
:10040C000301D960196841F480411960596821F0E1
:10041C0080015960996841F480419960D96821F450
:10042C004041D960196841F080511960596821F434
:10043C0080415960996841F080519960D96821F0E8
:10044C004051D960136B43F008031363214B1968B7
:10045C0041F001011960596821F001015960996856
:10046C0041F001019960D96821F00301D960196844
:10047C0041F004011960596821F002015960996832
:10048C0041F004019960D96821F00C01D960196818
:10049C0041F010011960596821F004015960996804
:1004AC0041F010019960D96821F03001D960136BCB
:1004BC0043F004031363084B1A6822F040621A607D
:1004CC00DA6822F04062DA60704700BF0038024000
:1004DC0000040240000C02400008024000B500F08D
:1004EC000700C0F1070CBCF1040F28BF4FF0040C3F
:1004FC00031D062B0FD9C31E4FF0FF3E0EFA0CF056
:10050C0021EA000199400EFA03FE22EA0E0241EAAA
:10051C0002005DF804FB0023EEE70000054A1368B7
:10052C0001331360044A13889BB201339BB21380CE
:10053C00704700BF1C000020220000200C4A5369A9
:10054C0043F4005353610B4B1B889BB2632B0ED9A6
:10055C00084B00221A80084A13780133DBB213705F
:10056C001378DBB2062B02D9134601221A7070479E
:10057C00003C0140220000202000002008B5154A54
:10058C00536C43F480435364A2F58032536923F0D7
:10059C00F00343F0200353610F4B1A6842F40052EE
:1005AC001A609A6842F400529A60DA6822F4005297
:1005BC00DA600A4BD86800221146C0F30220FFF71C
:1005CC008DFF0001C0B2064B83F828034FF48072F4
:1005DC005A6008BD00380240003C014000ED00E0CC
:1005EC0000E100E04FF0E0231A6922F001021A61E9
:1005FC001A6942F002021A611A6942F004021A6185
:10060C00596901F07F41064A0A435A619A6902F01E
:10061C007F429A611A6942F001021A61704700BF69
:10062C001FBF0200DFF834D00D480E490E4A0023DC
:10063C0002E0D458C4500433C4188C42F9D30B4A8A
:10064C000B4C002301E013600432A242FBD3FFF7F2
:10065C00C7FD00F011F8FFF7CDFD70470000032037
:10066C000000002000000020EC0600080000002024
:10067C0024000020FEE7000070B50D4D0D4C641BEE
:10068C00A4100026A64209D10B4D0C4C00F018F812
:10069C00641BA4100026A64205D170BD55F8043B7E
:1006AC0098470136EEE755F8043B98470136F2E7D8
:1006BC00E4060008E4060008E4060008E806000862
:1006CC00F8B500BFF8BC08BC9E467047F8B500BF33
:0806DC00F8BC08BC9E46704703
:0406E400D101000838
:0406E800AD01000858
:0400000508000631B8
:00000001FF
