:020000040800F2
:10000000000003203504000885040008850400086A
:10001000850400088504000885040008000000002D
:10002000000000000000000000000000850400083F
:10003000850400080000000085040008850400080D
:10004000850400088504000885040008850400086C
:10005000850400088504000885040008850400085C
:10006000850400088504000885040008850400084C
:10007000850400088504000885040008850400083C
:10008000850400088504000885040008850400082C
:10009000850400088504000885040008850400081C
:1000A000850400088504000885040008850400080C
:1000B00085040008850400088504000885040008FC
:1000C00085040008850400088504000885040008EC
:1000D00085040008850400088504000885040008DC
:1000E00085040008850400088504000885040008CC
:1000F00085040008850400088504000885040008BC
:1001000085040008850400088504000885040008AB
:10011000850400088504000885040008850400089B
:10012000850400088504000885040008850400088B
:10013000850400088504000885040008850400087B
:10014000850400088504000885040008850400086B
:10015000850400088504000885040008850400085B
:10016000850400088504000885040008850400084B
:1001700085040008850400088504000800000000CC
:10018000850400088504000885040008850400082B
:10019000850400088504000885040008850400081B
:0C01A000850400088504000885040008A0
:1001AC0010B5054C237833B9044B13B10448AFF3A5
:1001BC0000800123237010BD00000020000000000F
:1001CC00D004000808B5034B1BB103490348AFF337
:1001DC00008008BD0000000004000020D0040008CE
:1001EC00034AD2F8883043F47003C2F88830704761
:1001FC0000ED00E008B500F021F800F0A3F80E4B7C
:10020C009A6942F001029A619A6942F080029A61FD
:10021C009A6942F480429A6103F500639A6942F04C
:10022C0001029A619A6942F002029A619A6942F05B
:10023C0004029A61E3E700BF000402403F4A1368DE
:10024C0023F0F80343F080031360002393603B4BCF
:10025C009B6813F00C0FFAD1384A136823F08073A3
:10026C001360364B1B6813F0007FFAD1334A1368C6
:10027C0023F410231360314B1B6813F4003FFAD1A5
:10028C002E4B1A6822F480221A601A6842F48032CB
:10029C001A602A4B1B6813F4003FFAD0274B1A68DC
:1002AC0022F480221A601A6842F400221A6000229A
:1002BC005A605A6842F480025A605A6822F03F022F
:1002CC0042F004025A605A686FF38E1242F43452B0
:1002DC005A605A6822F440325A601A6842F08072AE
:1002EC001A60164B1B6813F0007FFAD1134B9A68F7
:1002FC0022F0030242F002029A609A6822F0F002A5
:10030C009A609A6822F4E05242F4A0529A609A6879
:10031C0022F4604242F400429A609A6842F06052C1
:10032C009A609A6822F040429A60054A136823F05A
:10033C000F0343F005031360704700BF0038024001
:10034C00003C0240354A136B43F002031363344BF9
:10035C00196841F001011960596821F001015960D7
:10036C00996841F001019960D96821F00301D960C5
:10037C00196841F480411960596821F08001596075
:10038C00996841F480419960D96821F44041D96061
:10039C00196841F080511960596821F48041596005
:1003AC00996841F080519960D96821F04051D96029
:1003BC00136B43F0080313631A4B1A6842F00102E3
:1003CC001A605A6822F001025A609A6842F00102DF
:1003DC009A60DA6822F00302DA601A6842F00402CA
:1003EC001A605A6822F002025A609A6842F00402BB
:1003FC009A60DA6822F00C02DA601A6842F0100295
:10040C001A605A6822F004025A609A6842F010028C
:10041C009A60DA6822F03002DA60704700380240E5
:10042C0000040240000C0240DFF834D00D480E49A5
:10043C000E4A002302E0D458C4500433C4188C4232
:10044C00F9D30B4A0B4C002301E013600432A24297
:10045C00FBD3FFF7C5FE00F011F8FFF7CBFE70479A
:10046C00000003200000002000000020F004000821
:10047C00000000201C000020FEE7000070B50D4DB0
:10048C000D4C641BA4100026A64209D10B4D0C4C3C
:10049C0000F018F8641BA4100026A64205D170BD0C
:1004AC0055F8043B98470136EEE755F8043B98475E
:1004BC000136F2E7E8040008E8040008E804000844
:1004CC00EC040008F8B500BFF8BC08BC9E467047A9
:0C04DC00F8B500BFF8BC08BC9E46704795
:0404E800D101000836
:0404EC00AD01000856
:0400000508000435B6
:00000001FF
