:020000040800F2
:10000000000003201D0800086D0800086D080008A6
:100010006D0800086D0800086D0800080000000069
:100020000000000000000000000000006D08000853
:100030006D080008000000006D080008390600087F
:100040006D0800086D0800086D0800086D080008BC
:100050006D0800086D0800086D0800086D080008AC
:100060006D0800086D0800086D0800086D0800089C
:100070006D0800086D0800086D0800086D0800088C
:100080006D0800086D0800086D0800086D0800087C
:100090006D0800086D0800086D0800086D0800086C
:1000A0006D0800086D0800086D0800086D0800085C
:1000B0006D0800086D0800086D0800086D0800084C
:1000C0006D0800086D0800086D0800086D0800083C
:1000D0006D0800086D0800086D0800086D0800082C
:1000E0006D0600086D0800086D0800086D0800081E
:1000F0006D0800086D0800086D0800086D0800080C
:100100006D0800086D0800086D0800086D080008FB
:100110006D0800086D0800086D0800086D080008EB
:100120006D0800086D0800086D0800086D080008DB
:100130006D0800086D0800086D0800086D080008CB
:100140006D0800086D0800086D0800086D080008BB
:100150006D0800086D0800086D0800086D080008AB
:100160006D0800086D0800086D0800086D0800089B
:100170006D0800086D0800086D0800080000000008
:100180006D0800086D0800086D0800086D0800087B
:100190006D0800086D0800086D0800086D0800086B
:0C01A0006D0800086D0800086D080008DC
:1001AC0010B5054C237833B9044B13B10448AFF3A5
:1001BC0000800123237010BD00000020000000000F
:1001CC00B808000808B5034B1BB103490348AFF34B
:1001DC00008008BD0000000004000020B8080008E2
:1001EC00034AD2F8883043F47003C2F88830704761
:1001FC0000ED00E008B500F07DF800F0FFF800F02D
:10020C00B3FA00F0E5FA17E0314B1878114600F01C
:10021C0077F926E02E4B1878114600F071F935E08D
:10022C002C4B1B682C4A12689B1A2C4A11782C4AAE
:10023C0032F8112093423CD22A4B1B788BB1294BBC
:10024C0000221A70234B1A68234B1A60264B01228A
:10025C001A701F4B1B7823B11D4B1B78DBB2062B7E
:10026C00D2D9224B1B788BB1204B00221A70194B20
:10027C001A68194B1A601C4B01221A70144B1B780C
:10028C0023B1134B1B78DBB2062BC3D9104B1B7855
:10029C00002BD1D00E4B1B78DBB2062BCCD8144BD9
:1002AC001B78002BBCD10A4B1878012100F028F9DF
:1002BC00C2E70D4B1978B1FA81F149091970044B59
:1002CC00187800F01DF9034B1A68034B1A60B3E75A
:1002DC002C000020280000202000002025000020F9
:1002EC00D0080008260000201C000020240000205C
:1002FC00270000203F4A136823F0F80343F08003E3
:10030C001360002393603B4B9B6813F00C0FFAD1E6
:10031C00384A136823F080731360364B1B6813F054
:10032C00007FFAD1334A136823F410231360314B46
:10033C001B6813F4003FFAD12E4B1A6822F480226A
:10034C001A601A6842F480321A602A4B1B6813F444
:10035C00003FFAD0274B1A6822F480221A601A68E0
:10036C0042F400221A6000225A605A6842F4800259
:10037C005A605A6822F03F0242F004025A605A68EE
:10038C006FF38E1242F434525A605A6822F440329F
:10039C005A601A6842F080721A60164B1B6813F090
:1003AC00007FFAD1134B9A6822F0030242F002024A
:1003BC009A609A6822F0F0029A609A6822F4E052ED
:1003CC0042F4A0529A609A6822F4604242F40042CD
:1003DC009A609A6842F060529A609A6822F04042A1
:1003EC009A60054A136823F00F0343F0050313606A
:1003FC00704700BF00380240003C02403C4A136B7F
:10040C0043F0020313633B4B196841F0010119607F
:10041C00596821F001015960996841F00101996016
:10042C00D96821F00301D960196841F48041196041
:10043C00596821F080015960996841F480419960B4
:10044C00D96821F44041D960196841F08051196094
:10045C00596821F480415960996841F08051996044
:10046C00D96821F04051D960136B43F00803136332
:10047C00214B196841F001011960596821F0010103
:10048C005960996841F001019960D96821F0030124
:10049C00D960196841F004011960596821F0020112
:1004AC005960996841F004019960D96821F00C01F8
:1004BC00D960196841F010011960596821F00401E4
:1004CC005960996841F010019960D96821F03001A8
:1004DC00D960136B43F004031363084B1A6822F0C2
:1004EC0040621A60DA6822F04062DA60704700BF3E
:1004FC000038024000040240000C02400008024098
:10050C00013805286DD8DFE800F0031627384B5C5E
:10051C0059B1344A936943F480239361A2F5006284
:10052C00936943F00103936170472F4A936943F435
:10053C0080339361704749B12B4B9A6942F48032F6
:10054C009A619A6942F080029A617047264A9369CF
:10055C0043F400039361704749B1234B9A6942F409
:10056C0000029A619A6942F480429A6170471E4A6D
:10057C00936943F080439361704759B11A4A936968
:10058C0043F08043936102F50062936943F00103E9
:10059C0093617047134A936943F4803393617047B6
:1005AC0049B1104B9A6942F480329A619A6942F0CF
:1005BC0002029A6170470B4A936943F400339361CA
:1005CC00704749B1074B9A6942F400329A619A69B3
:1005DC0042F004029A617047024A936943F4802303
:1005EC0093617047000C02400004024000B500F01B
:1005FC000700C0F1070CBCF1040F28BF4FF0040C2E
:10060C00031D062B0FD9C31E4FF0FF3E0EFA0CF044
:10061C0021EA000199400EFA03FE22EA0E0241EA99
:10062C0002005DF804FB0023EEE70000084A1368A3
:10063C0001331360074A13889BB201339BB21380BA
:10064C00054B1B781BB1054A1368013313607047C7
:10065C00280000203600002034000020300000204C
:10066C0008B5374A536943F400535361354B1B8823
:10067C009BB2632B16D9334B00221A80324B1B6969
:10068C0013F4005F09D0314B1B785BB92F4B01225F
:10069C001A702F4B00221A6004E02C4B1B78DBB233
:1006AC00012B00D008BD294B00221A70284B1B6867
:1006BC00B3F5FA6F12D2274A13780133DBB21370F9
:1006CC001378DBB2062B02D9134601221A70224B87
:1006DC0001221A701E4B00221A60E3E71C4B1B68A8
:1006EC00B3F57A6F14D21D4B1B78DBB2012BF1D111
:1006FC001B4A13780133DBB213701378DBB2022B75
:10070C0002D9134600221A70164B01221A70E1E727
:10071C00124A1378B3FA83F35B0913701378002B26
:10072C00D8D10C4B1B78002BD4D00A4B1B78DBB2E6
:10073C00062BCFD8074B18780121FFF7E1FEC9E74C
:10074C00003C01403600002000080240340000202C
:10075C00300000202C000020260000202700002064
:10076C00250000202400002008B5154A536C43F4E2
:10077C0080435364A2F58032536923F0F00343F0B5
:10078C00200353610F4B1A6842F400521A609A68A6
:10079C0042F400529A60DA6842F40052DA600A4B72
:1007AC00D86800221146C0F30220FFF71FFF00019A
:1007BC00C0B2064B83F828034FF480725A6008BD10
:1007CC0000380240003C014000ED00E000E100E098
:1007DC004FF0E0231A6922F001021A611A6942F003
:1007EC0002021A611A6942F004021A61596901F095
:1007FC007F41064A0A435A619A6902F07F429A6124
:10080C001A6942F001021A61704700BF1FBF020053
:10081C00DFF834D00D480E490E4A002302E0D458BC
:10082C00C4500433C4188C42F9D30B4A0B4C00232C
:10083C0001E013600432A242FBD3FFF7D1FC00F0BD
:10084C0011F8FFF7D7FC70470000032000000020D0
:10085C0000000020E0080008000000203800002004
:10086C00FEE7000070B50D4D0D4C641BA410002666
:10087C00A64209D10B4D0C4C00F018F8641BA410C7
:10088C000026A64205D170BD55F8043B98470136A9
:10089C00EEE755F8043B98470136F2E7D808000814
:1008AC00D8080008D8080008DC080008F8B500BF14
:1008BC00F8BC08BC9E467047F8B500BFF8BC08BC35
:0408CC009E4670478D
:0808D00082064D01E300000067
:0408D800D101000842
:0408DC00AD01000862
:040000050800081DCA
:00000001FF
